{
  "abi": [
    {
      "inputs": [
        {
          "internalType": "address",
          "name": "_erc20TransferHelper",
          "type": "address"
        },
        {
          "internalType": "address",
          "name": "_erc721TransferHelper",
          "type": "address"
        },
        {
          "internalType": "address",
          "name": "_royaltyEngine",
          "type": "address"
        },
        {
          "internalType": "address",
          "name": "_protocolFeeSettings",
          "type": "address"
        },
        {
          "internalType": "address",
          "name": "_wethAddress",
          "type": "address"
        }
      ],
      "stateMutability": "nonpayable",
      "type": "constructor"
    },
    {
      "anonymous": false,
      "inputs": [
        {
          "indexed": true,
          "internalType": "address",
          "name": "userA",
          "type": "address"
        },
        {
          "indexed": true,
          "internalType": "address",
          "name": "userB",
          "type": "address"
        },
        {
          "components": [
            {
              "internalType": "address",
              "name": "currencyTokenContract",
              "type": "address"
            },
            {
              "internalType": "address",
              "name": "nftTokenContract",
              "type": "address"
            },
            {
              "internalType": "uint256",
              "name": "tokenId",
              "type": "uint256"
            },
            {
              "internalType": "uint256",
              "name": "amount",
              "type": "uint256"
            }
          ],
          "indexed": false,
          "internalType": "struct UniversalFlexiBarterExchangeEventV1.FlexiBarterExchangeDetails",
          "name": "a",
          "type": "tuple"
        },
        {
          "components": [
            {
              "internalType": "address",
              "name": "currencyTokenContract",
              "type": "address"
            },
            {
              "internalType": "address",
              "name": "nftTokenContract",
              "type": "address"
            },
            {
              "internalType": "uint256",
              "name": "tokenId",
              "type": "uint256"
            },
            {
              "internalType": "uint256",
              "name": "amount",
              "type": "uint256"
            }
          ],
          "indexed": false,
          "internalType": "struct UniversalFlexiBarterExchangeEventV1.FlexiBarterExchangeDetails",
          "name": "b",
          "type": "tuple"
        }
      ],
      "name": "FlexiBarterExchangeExecuted",
      "type": "event"
    },
    {
      "anonymous": false,
      "inputs": [
        {
          "indexed": true,
          "internalType": "address",
          "name": "tokenContract",
          "type": "address"
        },
        {
          "indexed": true,
          "internalType": "uint256",
          "name": "tokenId",
          "type": "uint256"
        },
        {
          "indexed": true,
          "internalType": "uint256",
          "name": "id",
          "type": "uint256"
        },
        {
          "components": [
            {
              "internalType": "address",
              "name": "maker",
              "type": "address"
            },
            {
              "internalType": "address",
              "name": "currency",
              "type": "address"
            },
            {
              "internalType": "uint16",
              "name": "findersFeeBps",
              "type": "uint16"
            },
            {
              "internalType": "uint256",
              "name": "amount",
              "type": "uint256"
            },
            {
              "internalType": "address",
              "name": "nft",
              "type": "address"
            },
            {
              "internalType": "uint256",
              "name": "tokenId",
              "type": "uint256"
            }
          ],
          "indexed": false,
          "internalType": "struct FlexiBarterOffersV1.Offer",
          "name": "offer",
          "type": "tuple"
        }
      ],
      "name": "OfferCanceled",
      "type": "event"
    },
    {
      "anonymous": false,
      "inputs": [
        {
          "indexed": true,
          "internalType": "address",
          "name": "tokenContract",
          "type": "address"
        },
        {
          "indexed": true,
          "internalType": "uint256",
          "name": "tokenId",
          "type": "uint256"
        },
        {
          "indexed": true,
          "internalType": "uint256",
          "name": "id",
          "type": "uint256"
        },
        {
          "components": [
            {
              "internalType": "address",
              "name": "maker",
              "type": "address"
            },
            {
              "internalType": "address",
              "name": "currency",
              "type": "address"
            },
            {
              "internalType": "uint16",
              "name": "findersFeeBps",
              "type": "uint16"
            },
            {
              "internalType": "uint256",
              "name": "amount",
              "type": "uint256"
            },
            {
              "internalType": "address",
              "name": "nft",
              "type": "address"
            },
            {
              "internalType": "uint256",
              "name": "tokenId",
              "type": "uint256"
            }
          ],
          "indexed": false,
          "internalType": "struct FlexiBarterOffersV1.Offer",
          "name": "offer",
          "type": "tuple"
        }
      ],
      "name": "OfferCreated",
      "type": "event"
    },
    {
      "anonymous": false,
      "inputs": [
        {
          "indexed": true,
          "internalType": "address",
          "name": "tokenContract",
          "type": "address"
        },
        {
          "indexed": true,
          "internalType": "uint256",
          "name": "tokenId",
          "type": "uint256"
        },
        {
          "indexed": true,
          "internalType": "uint256",
          "name": "id",
          "type": "uint256"
        },
        {
          "indexed": false,
          "internalType": "address",
          "name": "taker",
          "type": "address"
        },
        {
          "indexed": false,
          "internalType": "address",
          "name": "finder",
          "type": "address"
        },
        {
          "components": [
            {
              "internalType": "address",
              "name": "maker",
              "type": "address"
            },
            {
              "internalType": "address",
              "name": "currency",
              "type": "address"
            },
            {
              "internalType": "uint16",
              "name": "findersFeeBps",
              "type": "uint16"
            },
            {
              "internalType": "uint256",
              "name": "amount",
              "type": "uint256"
            },
            {
              "internalType": "address",
              "name": "nft",
              "type": "address"
            },
            {
              "internalType": "uint256",
              "name": "tokenId",
              "type": "uint256"
            }
          ],
          "indexed": false,
          "internalType": "struct FlexiBarterOffersV1.Offer",
          "name": "offer",
          "type": "tuple"
        }
      ],
      "name": "OfferFilled",
      "type": "event"
    },
    {
      "anonymous": false,
      "inputs": [
        {
          "indexed": true,
          "internalType": "address",
          "name": "tokenContract",
          "type": "address"
        },
        {
          "indexed": true,
          "internalType": "uint256",
          "name": "tokenId",
          "type": "uint256"
        },
        {
          "indexed": true,
          "internalType": "uint256",
          "name": "id",
          "type": "uint256"
        },
        {
          "components": [
            {
              "internalType": "address",
              "name": "maker",
              "type": "address"
            },
            {
              "internalType": "address",
              "name": "currency",
              "type": "address"
            },
            {
              "internalType": "uint16",
              "name": "findersFeeBps",
              "type": "uint16"
            },
            {
              "internalType": "uint256",
              "name": "amount",
              "type": "uint256"
            },
            {
              "internalType": "address",
              "name": "nft",
              "type": "address"
            },
            {
              "internalType": "uint256",
              "name": "tokenId",
              "type": "uint256"
            }
          ],
          "indexed": false,
          "internalType": "struct FlexiBarterOffersV1.Offer",
          "name": "offer",
          "type": "tuple"
        }
      ],
      "name": "OfferUpdated",
      "type": "event"
    },
    {
      "anonymous": false,
      "inputs": [
        {
          "indexed": true,
          "internalType": "address",
          "name": "tokenContract",
          "type": "address"
        },
        {
          "indexed": true,
          "internalType": "uint256",
          "name": "tokenId",
          "type": "uint256"
        },
        {
          "indexed": false,
          "internalType": "address",
          "name": "recipient",
          "type": "address"
        },
        {
          "indexed": false,
          "internalType": "uint256",
          "name": "amount",
          "type": "uint256"
        }
      ],
      "name": "RoyaltyPayout",
      "type": "event"
    },
    {
      "inputs": [
        {
          "internalType": "address",
          "name": "_tokenContract",
          "type": "address"
        },
        {
          "internalType": "uint256",
          "name": "_tokenId",
          "type": "uint256"
        },
        {
          "internalType": "uint256",
          "name": "_amount",
          "type": "uint256"
        },
        {
          "internalType": "address",
          "name": "_payoutCurrency",
          "type": "address"
        }
      ],
      "name": "_handleRoyaltyEnginePayout",
      "outputs": [
        {
          "internalType": "uint256",
          "name": "",
          "type": "uint256"
        }
      ],
      "stateMutability": "payable",
      "type": "function"
    },
    {
      "inputs": [
        {
          "internalType": "address",
          "name": "_tokenContract",
          "type": "address"
        },
        {
          "internalType": "uint256",
          "name": "_tokenId",
          "type": "uint256"
        },
        {
          "internalType": "uint256",
          "name": "_offerId",
          "type": "uint256"
        }
      ],
      "name": "cancelOffer",
      "outputs": [],
      "stateMutability": "nonpayable",
      "type": "function"
    },
    {
      "inputs": [
        {
          "internalType": "address",
          "name": "_tokenContract",
          "type": "address"
        },
        {
          "internalType": "uint256",
          "name": "_tokenId",
          "type": "uint256"
        },
        {
          "internalType": "address",
          "name": "_offerTokenContract",
          "type": "address"
        },
        {
          "internalType": "uint256",
          "name": "_offerTokenId",
          "type": "uint256"
        },
        {
          "internalType": "address",
          "name": "_currency",
          "type": "address"
        },
        {
          "internalType": "uint256",
          "name": "_amount",
          "type": "uint256"
        },
        {
          "internalType": "uint16",
          "name": "_findersFeeBps",
          "type": "uint16"
        }
      ],
      "name": "createOffer",
      "outputs": [
        {
          "internalType": "uint256",
          "name": "",
          "type": "uint256"
        }
      ],
      "stateMutability": "payable",
      "type": "function"
    },
    {
      "inputs": [],
      "name": "erc20TransferHelper",
      "outputs": [
        {
          "internalType": "contract ERC20TransferHelper",
          "name": "",
          "type": "address"
        }
      ],
      "stateMutability": "view",
      "type": "function"
    },
    {
      "inputs": [],
      "name": "erc721TransferHelper",
      "outputs": [
        {
          "internalType": "contract ERC721TransferHelper",
          "name": "",
          "type": "address"
        }
      ],
      "stateMutability": "view",
      "type": "function"
    },
    {
      "inputs": [
        {
          "internalType": "address",
          "name": "_tokenContract",
          "type": "address"
        },
        {
          "internalType": "uint256",
          "name": "_tokenId",
          "type": "uint256"
        },
        {
          "internalType": "uint256",
          "name": "_offerId",
          "type": "uint256"
        },
        {
          "internalType": "address",
          "name": "_offerTokenContract",
          "type": "address"
        },
        {
          "internalType": "uint256",
          "name": "_offerTokenId",
          "type": "uint256"
        },
        {
          "internalType": "address",
          "name": "_currency",
          "type": "address"
        },
        {
          "internalType": "uint256",
          "name": "_amount",
          "type": "uint256"
        },
        {
          "internalType": "address",
          "name": "_finder",
          "type": "address"
        }
      ],
      "name": "fillOffer",
      "outputs": [],
      "stateMutability": "nonpayable",
      "type": "function"
    },
    {
      "inputs": [],
      "name": "name",
      "outputs": [
        {
          "internalType": "string",
          "name": "",
          "type": "string"
        }
      ],
      "stateMutability": "view",
      "type": "function"
    },
    {
      "inputs": [],
      "name": "offerCount",
      "outputs": [
        {
          "internalType": "uint256",
          "name": "",
          "type": "uint256"
        }
      ],
      "stateMutability": "view",
      "type": "function"
    },
    {
      "inputs": [
        {
          "internalType": "address",
          "name": "",
          "type": "address"
        },
        {
          "internalType": "uint256",
          "name": "",
          "type": "uint256"
        },
        {
          "internalType": "uint256",
          "name": "",
          "type": "uint256"
        }
      ],
      "name": "offers",
      "outputs": [
        {
          "internalType": "address",
          "name": "maker",
          "type": "address"
        },
        {
          "internalType": "address",
          "name": "currency",
          "type": "address"
        },
        {
          "internalType": "uint16",
          "name": "findersFeeBps",
          "type": "uint16"
        },
        {
          "internalType": "uint256",
          "name": "amount",
          "type": "uint256"
        },
        {
          "internalType": "address",
          "name": "nft",
          "type": "address"
        },
        {
          "internalType": "uint256",
          "name": "tokenId",
          "type": "uint256"
        }
      ],
      "stateMutability": "view",
      "type": "function"
    },
    {
      "inputs": [
        {
          "internalType": "address",
          "name": "",
          "type": "address"
        },
        {
          "internalType": "uint256",
          "name": "",
          "type": "uint256"
        },
        {
          "internalType": "uint256",
          "name": "",
          "type": "uint256"
        }
      ],
      "name": "offersForNFT",
      "outputs": [
        {
          "internalType": "uint256",
          "name": "",
          "type": "uint256"
        }
      ],
      "stateMutability": "view",
      "type": "function"
    },
    {
      "inputs": [
        {
          "internalType": "address",
          "name": "",
          "type": "address"
        },
        {
          "internalType": "address",
          "name": "",
          "type": "address"
        },
        {
          "internalType": "uint256",
          "name": "",
          "type": "uint256"
        },
        {
          "internalType": "bytes",
          "name": "",
          "type": "bytes"
        }
      ],
      "name": "onERC721Received",
      "outputs": [
        {
          "internalType": "bytes4",
          "name": "",
          "type": "bytes4"
        }
      ],
      "stateMutability": "nonpayable",
      "type": "function"
    },
    {
      "inputs": [],
      "name": "registrar",
      "outputs": [
        {
          "internalType": "address",
          "name": "",
          "type": "address"
        }
      ],
      "stateMutability": "view",
      "type": "function"
    },
    {
      "inputs": [
        {
          "internalType": "address",
          "name": "_royaltyEngine",
          "type": "address"
        }
      ],
      "name": "setRoyaltyEngineAddress",
      "outputs": [],
      "stateMutability": "nonpayable",
      "type": "function"
    },
    {
      "inputs": [
        {
          "internalType": "address",
          "name": "_tokenContract",
          "type": "address"
        },
        {
          "internalType": "uint256",
          "name": "_tokenId",
          "type": "uint256"
        },
        {
          "internalType": "uint256",
          "name": "_offerId",
          "type": "uint256"
        },
        {
          "internalType": "address",
          "name": "_offerTokenContract",
          "type": "address"
        },
        {
          "internalType": "uint256",
          "name": "_offerTokenId",
          "type": "uint256"
        },
        {
          "internalType": "address",
          "name": "_currency",
          "type": "address"
        },
        {
          "internalType": "uint256",
          "name": "_amount",
          "type": "uint256"
        }
      ],
      "name": "updateOffer",
      "outputs": [],
      "stateMutability": "payable",
      "type": "function"
    }
  ],
  "bytecode": {
    "object": "0x61012060405260016000553480156200001757600080fd5b5060405162003925380380620039258339810160408190526200003a916200025b565b6040518060400160405280601981526020017f466c65786920426172746572204f66666572733a2076312e300000000000000081525084848484886001600160a01b031663e3e606f06040518163ffffffff1660e01b8152600401602060405180830381865afa158015620000b3573d6000803e3d6000fd5b505050506040513d601f19601f82011682018060405250810190620000d99190620002db565b6001600160a01b0316632b20e3976040518163ffffffff1660e01b8152600401602060405180830381865afa15801562000117573d6000803e3d6000fd5b505050506040513d601f19601f820116820180604052508101906200013d9190620002db565b6001600160a01b038b811660805291821660a052600180546001600160a01b0319169483169490941790935590811660e05290811660c052166101005280516200018f9060029060208401906200019c565b505050505050506200033f565b828054620001aa9062000302565b90600052602060002090601f016020900481019282620001ce576000855562000219565b82601f10620001e957805160ff191683800117855562000219565b8280016001018555821562000219579182015b8281111562000219578251825591602001919060010190620001fc565b50620002279291506200022b565b5090565b5b808211156200022757600081556001016200022c565b6001600160a01b03811681146200025857600080fd5b50565b600080600080600060a086880312156200027457600080fd5b8551620002818162000242565b6020870151909550620002948162000242565b6040870151909450620002a78162000242565b6060870151909350620002ba8162000242565b6080870151909250620002cd8162000242565b809150509295509295909350565b600060208284031215620002ee57600080fd5b8151620002fb8162000242565b9392505050565b600181811c908216806200031757607f821691505b602082108114156200033957634e487b7160e01b600052602260045260246000fd5b50919050565b60805160a05160c05160e05161010051613577620003ae600039600081816103c301528181610f0d01526126b501526000818161211901526121c50152600081816101b601526111ab015260008181611dc30152611e5b01526000818161020f015261242a01526135776000f3fe6080604052600436106100dd5760003560e01c8063943dca681161007f578063e50ae7c711610059578063e50ae7c71461036b578063ebe463441461037e578063ed7141c41461039e578063f7cd1d9b146103b157600080fd5b8063943dca6814610244578063b249bb3014610264578063e3b436771461028457600080fd5b8063150b7a02116100bb578063150b7a02146101535780632b20e397146101a45780638f9d3251146101fd5780639128c22c1461023157600080fd5b806306fdde03146100e25780630e030d6a1461010d5780631115c24d1461012f575b600080fd5b3480156100ee57600080fd5b506100f76103e5565b6040516101049190612be1565b60405180910390f35b34801561011957600080fd5b5061012d610128366004612c57565b610473565b005b34801561013b57600080fd5b5061014560035481565b604051908152602001610104565b34801561015f57600080fd5b5061017361016e366004612d0a565b610718565b6040517fffffffff000000000000000000000000000000000000000000000000000000009091168152602001610104565b3480156101b057600080fd5b506101d87f000000000000000000000000000000000000000000000000000000000000000081565b60405173ffffffffffffffffffffffffffffffffffffffff9091168152602001610104565b34801561020957600080fd5b506101d87f000000000000000000000000000000000000000000000000000000000000000081565b61014561023f366004612dec565b610742565b34801561025057600080fd5b5061012d61025f366004612e36565b6109e5565b34801561027057600080fd5b5061012d61027f366004612ebb565b611193565b34801561029057600080fd5b5061031761029f366004612c57565b60046020818152600094855260408086208252938552838520905290835291208054600182015460028301546003840154939094015473ffffffffffffffffffffffffffffffffffffffff92831694838316947401000000000000000000000000000000000000000090930461ffff16939092169086565b6040805173ffffffffffffffffffffffffffffffffffffffff9788168152958716602087015261ffff90941693850193909352606084019190915292909216608082015260a081019190915260c001610104565b61012d610379366004612ed8565b611355565b34801561038a57600080fd5b50610145610399366004612c57565b6117ce565b6101456103ac366004612f5a565b61180c565b3480156103bd57600080fd5b506101d87f000000000000000000000000000000000000000000000000000000000000000081565b600280546103f290612fd5565b80601f016020809104026020016040519081016040528092919081815260200182805461041e90612fd5565b801561046b5780601f106104405761010080835404028352916020019161046b565b820191906000526020600020905b81548152906001019060200180831161044e57829003601f168201915b505050505081565b6000546001146104e4576040517f08c379a000000000000000000000000000000000000000000000000000000000815260206004820152600a60248201527f5245454e5452414e43590000000000000000000000000000000000000000000060448201526064015b60405180910390fd5b6002600081815573ffffffffffffffffffffffffffffffffffffffff85811682526004602081815260408085208886528252808520878652825293849020845160c081018652815485168082526001830154808716948301949094527401000000000000000000000000000000000000000090930461ffff169581019590955294850154606085015260038501549092166080840152929092015460a08201529033146105ed576040517f08c379a000000000000000000000000000000000000000000000000000000000815260206004820152601960248201527f63616e63656c4f66666572206d757374206265206d616b65720000000000000060448201526064016104db565b6106068160000151826060015183602001516000611c64565b61061d81600001518260a001518360800151611eb4565b81838573ffffffffffffffffffffffffffffffffffffffff167f87dba48fe0d868fcbba78cd3ffea949858abc83b6e5d80824364890f4c63452d846040516106659190613029565b60405180910390a45073ffffffffffffffffffffffffffffffffffffffff90921660009081526004602081815260408084209484529381528383209483529390935290812080547fffffffffffffffffffffffff00000000000000000000000000000000000000009081168255600180830180547fffffffffffffffffffff0000000000000000000000000000000000000000000016905560028301849055600383018054909216909155920181905555565b7f150b7a02000000000000000000000000000000000000000000000000000000005b949350505050565b60003330146107d3576040517f08c379a000000000000000000000000000000000000000000000000000000000815260206004820152602d60248201527f5f68616e646c65526f79616c7479456e67696e655061796f7574206f6e6c792060448201527f73656c662063616c6c61626c650000000000000000000000000000000000000060648201526084016104db565b6001546040517ff533b80200000000000000000000000000000000000000000000000000000000815273ffffffffffffffffffffffffffffffffffffffff87811660048301526024820187905260448201869052600092839291169063f533b802906064016000604051808303816000875af1158015610857573d6000803e3d6000fd5b505050506040513d6000823e601f3d9081017fffffffffffffffffffffffffffffffffffffffffffffffffffffffffffffffe016820160405261089d919081019061311b565b81519193509150806108b45785935050505061073a565b85600080805b848110156109d5578681815181106108d4576108d46131e0565b602002602001015192508581815181106108f0576108f06131e0565b6020026020010151915081841015610964576040517f08c379a000000000000000000000000000000000000000000000000000000000815260206004820152600960248201527f696e736f6c76656e74000000000000000000000000000000000000000000000060448201526064016104db565b61097283838b61c350611c64565b6040805173ffffffffffffffffffffffffffffffffffffffff8581168252602082018590528d92908f16917f866e6ef8682ddf5f1025e64dfdb45527077f7be70fa9ef680b7ffd8cf4ab9c50910160405180910390a392819003926001016108ba565b50919a9950505050505050505050565b600054600114610a51576040517f08c379a000000000000000000000000000000000000000000000000000000000815260206004820152600a60248201527f5245454e5452414e43590000000000000000000000000000000000000000000060448201526064016104db565b6002600081815573ffffffffffffffffffffffffffffffffffffffff8a811682526004602081815260408085208d865282528085208c8652825293849020845160c081018652815485168082526001830154808716948301949094527401000000000000000000000000000000000000000090930461ffff169581019590955294850154606085015260038501549092166080840152929092015460a082015290610b58576040517f08c379a000000000000000000000000000000000000000000000000000000000815260206004820152601e60248201527f66696c6c4f66666572206d75737420626520616374697665206f66666572000060448201526064016104db565b6040517f6352211e00000000000000000000000000000000000000000000000000000000815260048101899052339073ffffffffffffffffffffffffffffffffffffffff8b1690636352211e90602401602060405180830381865afa158015610bc5573d6000803e3d6000fd5b505050506040513d601f19601f82011682018060405250810190610be9919061320f565b73ffffffffffffffffffffffffffffffffffffffff1614610c66576040517f08c379a000000000000000000000000000000000000000000000000000000000815260206004820152601d60248201527f66696c6c4f66666572206d75737420626520746f6b656e206f776e657200000060448201526064016104db565b8373ffffffffffffffffffffffffffffffffffffffff16816020015173ffffffffffffffffffffffffffffffffffffffff16148015610ca85750828160600151145b610d34576040517f08c379a000000000000000000000000000000000000000000000000000000000815260206004820152602e60248201527f66696c6c4f66666572205f63757272656e63792026205f616d6f756e74206d7560448201527f7374206d61746368206f6666657200000000000000000000000000000000000060648201526084016104db565b8573ffffffffffffffffffffffffffffffffffffffff16816080015173ffffffffffffffffffffffffffffffffffffffff16148015610d765750848160a00151145b610e02576040517f08c379a000000000000000000000000000000000000000000000000000000000815260206004820152603e60248201527f66696c6c4f66666572205f6f66666572546f6b656e436f6e747261637420262060448201527f5f6f66666572546f6b656e4964206d757374206d61746368206f66666572000060648201526084016104db565b6000610e1a8a8a846060015185602001516000611fc4565b509050610e2b8183602001516120ca565b905073ffffffffffffffffffffffffffffffffffffffff831615610e8d576000612710836040015161ffff1683610e62919061325b565b610e6c9190613298565b9050610e7f848285602001516000611c64565b610e8981836132d3565b9150505b610e9e338284602001516000611c64565b610eb1338360a001518460800151611eb4565b81516040517f15dacbea00000000000000000000000000000000000000000000000000000000815273ffffffffffffffffffffffffffffffffffffffff8c811660048301523360248301529182166044820152606481018b90527f0000000000000000000000000000000000000000000000000000000000000000909116906315dacbea90608401600060405180830381600087803b158015610f5357600080fd5b505af1158015610f67573d6000803e3d6000fd5b5050505060006040518060800160405280846020015173ffffffffffffffffffffffffffffffffffffffff168152602001846080015173ffffffffffffffffffffffffffffffffffffffff1681526020018460a0015181526020018460600151815250905060006040518060800160405280600073ffffffffffffffffffffffffffffffffffffffff1681526020018d73ffffffffffffffffffffffffffffffffffffffff1681526020018c8152602001600181525090503373ffffffffffffffffffffffffffffffffffffffff16846000015173ffffffffffffffffffffffffffffffffffffffff167f2fefefec9c997878d25e67ec2fd330ba091283c726eec1cd0394261e1437cdf684846040516110829291906132ea565b60405180910390a3898b8d73ffffffffffffffffffffffffffffffffffffffff167f3f2c2750bf14faac5480b66b2f82f3eda81354056a60d19fa7a0b794cde4d2c83389896040516110d693929190613377565b60405180910390a45050505073ffffffffffffffffffffffffffffffffffffffff9790971660009081526004602081815260408084209984529881528883209783529690965295862080547fffffffffffffffffffffffff00000000000000000000000000000000000000009081168255600180830180547fffffffffffffffffffff0000000000000000000000000000000000000000000016905560028301899055600383018054909216909155950186905550505091555050565b3373ffffffffffffffffffffffffffffffffffffffff7f00000000000000000000000000000000000000000000000000000000000000001614611258576040517f08c379a000000000000000000000000000000000000000000000000000000000815260206004820152602660248201527f736574526f79616c7479456e67696e6541646472657373206f6e6c792072656760448201527f697374726172000000000000000000000000000000000000000000000000000060648201526084016104db565b611282817fcb23f8160000000000000000000000000000000000000000000000000000000061226a565b61130e576040517f08c379a000000000000000000000000000000000000000000000000000000000815260206004820152603d60248201527f736574526f79616c7479456e67696e6541646472657373206d757374206d617460448201527f63682049526f79616c7479456e67696e65563120696e7465726661636500000060648201526084016104db565b600180547fffffffffffffffffffffffff00000000000000000000000000000000000000001673ffffffffffffffffffffffffffffffffffffffff92909216919091179055565b6000546001146113c1576040517f08c379a000000000000000000000000000000000000000000000000000000000815260206004820152600a60248201527f5245454e5452414e43590000000000000000000000000000000000000000000060448201526064016104db565b6002600090815573ffffffffffffffffffffffffffffffffffffffff80891682526004602090815260408084208a855282528084208985529091529091208054909116331461146c576040517f08c379a000000000000000000000000000000000000000000000000000000000815260206004820152601960248201527f7570646174654f66666572206d757374206265206d616b65720000000000000060448201526064016104db565b600281015482158015906114a75750600182015473ffffffffffffffffffffffffffffffffffffffff85811691161415806114a75750808314155b806114dd5750600382015473ffffffffffffffffffffffffffffffffffffffff87811691161415806114dd575084826004015414155b611543576040517f08c379a000000000000000000000000000000000000000000000000000000000815260206004820152601a60248201527f7570646174654f6666657220696e76616c696420706172616d7300000000000060448201526064016104db565b600182015473ffffffffffffffffffffffffffffffffffffffff858116911614156115f657808311156115aa5760018201548184039061159a90829073ffffffffffffffffffffffffffffffffffffffff1661228d565b600283018054909101905561167c565b808310156115f15781546001830154848303916115e49173ffffffffffffffffffffffffffffffffffffffff918216918491166000611c64565b6002830180549190910390555b61167c565b8154600283015460018401546116289273ffffffffffffffffffffffffffffffffffffffff9081169291166000611c64565b611632838561228d565b6001820180547fffffffffffffffffffffffff00000000000000000000000000000000000000001673ffffffffffffffffffffffffffffffffffffffff8616179055600282018390555b600382015473ffffffffffffffffffffffffffffffffffffffff878116911614611721576116aa85876125e0565b8154600483015460038401546116da9273ffffffffffffffffffffffffffffffffffffffff908116929116611eb4565b6003820180547fffffffffffffffffffffffff00000000000000000000000000000000000000001673ffffffffffffffffffffffffffffffffffffffff881617905561176e565b8482600401541461176e5761173685876125e0565b8154600483015460038401546117669273ffffffffffffffffffffffffffffffffffffffff908116929116611eb4565b600482018590555b86888a73ffffffffffffffffffffffffffffffffffffffff167ff50926c8b0a66f71cd42a4b17373be478559e10cfcc273e51565d840e4396c2b856040516117b691906133ff565b60405180910390a45050600160005550505050505050565b600560205282600052604060002060205281600052604060002081815481106117f657600080fd5b9060005260206000200160009250925050505481565b60008054600114611879576040517f08c379a000000000000000000000000000000000000000000000000000000000815260206004820152600a60248201527f5245454e5452414e43590000000000000000000000000000000000000000000060448201526064016104db565b600260005561271061ffff83161115611914576040517f08c379a000000000000000000000000000000000000000000000000000000000815260206004820152603f60248201527f6372656174654f666665722066696e646572732066656520627073206d75737460448201527f206265206c657373207468616e206f7220657175616c20746f2031303030300060648201526084016104db565b61191e838561228d565b61192885876125e0565b6003600081546119379061345f565b919050819055506040518060c001604052803373ffffffffffffffffffffffffffffffffffffffff1681526020018573ffffffffffffffffffffffffffffffffffffffff1681526020018361ffff1681526020018481526020018773ffffffffffffffffffffffffffffffffffffffff16815260200186815250600460008a73ffffffffffffffffffffffffffffffffffffffff1673ffffffffffffffffffffffffffffffffffffffff16815260200190815260200160002060008981526020019081526020016000206000600354815260200190815260200160002060008201518160000160006101000a81548173ffffffffffffffffffffffffffffffffffffffff021916908373ffffffffffffffffffffffffffffffffffffffff16021790555060208201518160010160006101000a81548173ffffffffffffffffffffffffffffffffffffffff021916908373ffffffffffffffffffffffffffffffffffffffff16021790555060408201518160010160146101000a81548161ffff021916908361ffff1602179055506060820151816002015560808201518160030160006101000a81548173ffffffffffffffffffffffffffffffffffffffff021916908373ffffffffffffffffffffffffffffffffffffffff16021790555060a08201518160040155905050600560008973ffffffffffffffffffffffffffffffffffffffff1673ffffffffffffffffffffffffffffffffffffffff16815260200190815260200160002060008881526020019081526020016000206003549080600181540180825580915050600190039060005260206000200160009091909190915055600354878973ffffffffffffffffffffffffffffffffffffffff167f0c22a39b2f1ea34517b3167e760b5587be4eaa7150c8958176cd045587626e29600460008d73ffffffffffffffffffffffffffffffffffffffff1673ffffffffffffffffffffffffffffffffffffffff16815260200190815260200160002060008c815260200190815260200160002060006003548152602001908152602001600020604051611c4891906133ff565b60405180910390a4506003546001600055979650505050505050565b821580611c85575073ffffffffffffffffffffffffffffffffffffffff8416155b15611c8f57611eae565b73ffffffffffffffffffffffffffffffffffffffff8216611e8d5782471015611d3a576040517f08c379a000000000000000000000000000000000000000000000000000000000815260206004820152602160248201527f5f68616e646c654f7574676f696e675472616e7366657220696e736f6c76656e60448201527f740000000000000000000000000000000000000000000000000000000000000060648201526084016104db565b6000811580611d4857505a82115b611d525781611d54565b5a5b905060008573ffffffffffffffffffffffffffffffffffffffff16858390604051600060405180830381858888f193505050503d8060008114611db3576040519150601f19603f3d011682016040523d82523d6000602084013e611db8565b606091505b5050905080611e86577f000000000000000000000000000000000000000000000000000000000000000073ffffffffffffffffffffffffffffffffffffffff1663d0e30db0866040518263ffffffff1660e01b81526004016000604051808303818588803b158015611e2957600080fd5b505af1158015611e3d573d6000803e3d6000fd5b50611e8693505073ffffffffffffffffffffffffffffffffffffffff7f000000000000000000000000000000000000000000000000000000000000000016915088905087612715565b5050611eae565b611eae73ffffffffffffffffffffffffffffffffffffffff83168585612715565b50505050565b73ffffffffffffffffffffffffffffffffffffffff8116611f31576040517f08c379a000000000000000000000000000000000000000000000000000000000815260206004820152601660248201527f45524337323120746f6b656e206164726573732830290000000000000000000060448201526064016104db565b6040517f42842e0e00000000000000000000000000000000000000000000000000000000815230600482015273ffffffffffffffffffffffffffffffffffffffff8481166024830152604482018490528216906342842e0e90606401600060405180830381600087803b158015611fa757600080fd5b505af1158015611fbb573d6000803e3d6000fd5b50505050505050565b60008080831580611fd457505a84115b611fde5783611fe0565b5a5b6040517f9128c22c00000000000000000000000000000000000000000000000000000000815273ffffffffffffffffffffffffffffffffffffffff808b166004830152602482018a905260448201899052871660648201529091503090639128c22c90839060840160206040518083038160008887f1935050505080156120a2575060408051601f3d9081017fffffffffffffffffffffffffffffffffffffffffffffffffffffffffffffffe016820190925261209f91810190613498565b60015b6120b35785600092509250506120c0565b9250600191506120c09050565b9550959350505050565b6040517f61b485f600000000000000000000000000000000000000000000000000000000815230600482015260248101839052600090819073ffffffffffffffffffffffffffffffffffffffff7f000000000000000000000000000000000000000000000000000000000000000016906361b485f690604401602060405180830381865afa158015612160573d6000803e3d6000fd5b505050506040513d601f19601f820116820180604052508101906121849190613498565b9050806121945783915050612264565b6040517f86ab6fb90000000000000000000000000000000000000000000000000000000081523060048201526000907f000000000000000000000000000000000000000000000000000000000000000073ffffffffffffffffffffffffffffffffffffffff16906386ab6fb9906024016040805180830381865afa158015612220573d6000803e3d6000fd5b505050506040513d601f19601f8201168201806040525081019061224491906134b1565b91505061225581838661c350611c64565b61225f82866132d3565b925050505b92915050565b6000612275836127a7565b80156122865750612286838361280b565b9392505050565b73ffffffffffffffffffffffffffffffffffffffff811661233c5781341015612338576040517f08c379a000000000000000000000000000000000000000000000000000000000815260206004820152603b60248201527f5f68616e646c65496e636f6d696e675472616e73666572206d73672076616c7560448201527f65206c657373207468616e20657870656374656420616d6f756e74000000000060648201526084016104db565b5050565b6040517f70a08231000000000000000000000000000000000000000000000000000000008152306004820152819060009073ffffffffffffffffffffffffffffffffffffffff8316906370a0823190602401602060405180830381865afa1580156123ab573d6000803e3d6000fd5b505050506040513d601f19601f820116820180604052508101906123cf9190613498565b6040517fd9fc4b6100000000000000000000000000000000000000000000000000000000815273ffffffffffffffffffffffffffffffffffffffff8581166004830152336024830152306044830152606482018790529192507f00000000000000000000000000000000000000000000000000000000000000009091169063d9fc4b6190608401600060405180830381600087803b15801561247057600080fd5b505af1158015612484573d6000803e3d6000fd5b50506040517f70a082310000000000000000000000000000000000000000000000000000000081523060048201526000925073ffffffffffffffffffffffffffffffffffffffff851691506370a0823190602401602060405180830381865afa1580156124f5573d6000803e3d6000fd5b505050506040513d601f19601f820116820180604052508101906125199190613498565b90508061252686846134eb565b146125d9576040517f08c379a000000000000000000000000000000000000000000000000000000000815260206004820152604c60248201527f5f68616e646c65496e636f6d696e675472616e7366657220746f6b656e20747260448201527f616e736665722063616c6c20646964206e6f74207472616e736665722065787060648201527f656374656420616d6f756e740000000000000000000000000000000000000000608482015260a4016104db565b5050505050565b73ffffffffffffffffffffffffffffffffffffffff811661265d576040517f08c379a000000000000000000000000000000000000000000000000000000000815260206004820152601660248201527f45524337323120746f6b656e206164726573732830290000000000000000000060448201526064016104db565b6040517fd9fc4b6100000000000000000000000000000000000000000000000000000000815273ffffffffffffffffffffffffffffffffffffffff8281166004830152336024830152306044830152606482018490527f0000000000000000000000000000000000000000000000000000000000000000169063d9fc4b6190608401600060405180830381600087803b1580156126f957600080fd5b505af115801561270d573d6000803e3d6000fd5b505050505050565b6040805173ffffffffffffffffffffffffffffffffffffffff8416602482015260448082018490528251808303909101815260649091019091526020810180517bffffffffffffffffffffffffffffffffffffffffffffffffffffffff167fa9059cbb000000000000000000000000000000000000000000000000000000001790526127a2908490612947565b505050565b60006127d3827f01ffc9a70000000000000000000000000000000000000000000000000000000061280b565b80156122645750612804827fffffffff0000000000000000000000000000000000000000000000000000000061280b565b1592915050565b604080517fffffffff00000000000000000000000000000000000000000000000000000000831660248083019190915282518083039091018152604490910182526020810180517bffffffffffffffffffffffffffffffffffffffffffffffffffffffff167f01ffc9a7000000000000000000000000000000000000000000000000000000001790529051600091908290819073ffffffffffffffffffffffffffffffffffffffff871690617530906128c5908690613503565b6000604051808303818686fa925050503d8060008114612901576040519150601f19603f3d011682016040523d82523d6000602084013e612906565b606091505b50915091506020815110156129215760009350505050612264565b81801561293d57508080602001905181019061293d919061351f565b9695505050505050565b60006129a9826040518060400160405280602081526020017f5361666545524332303a206c6f772d6c6576656c2063616c6c206661696c65648152508573ffffffffffffffffffffffffffffffffffffffff16612a539092919063ffffffff16565b8051909150156127a257808060200190518101906129c7919061351f565b6127a2576040517f08c379a000000000000000000000000000000000000000000000000000000000815260206004820152602a60248201527f5361666545524332303a204552433230206f7065726174696f6e20646964206e60448201527f6f7420737563636565640000000000000000000000000000000000000000000060648201526084016104db565b606061073a84846000858573ffffffffffffffffffffffffffffffffffffffff85163b612adc576040517f08c379a000000000000000000000000000000000000000000000000000000000815260206004820152601d60248201527f416464726573733a2063616c6c20746f206e6f6e2d636f6e747261637400000060448201526064016104db565b6000808673ffffffffffffffffffffffffffffffffffffffff168587604051612b059190613503565b60006040518083038185875af1925050503d8060008114612b42576040519150601f19603f3d011682016040523d82523d6000602084013e612b47565b606091505b5091509150612b57828286612b62565b979650505050505050565b60608315612b71575081612286565b825115612b815782518084602001fd5b816040517f08c379a00000000000000000000000000000000000000000000000000000000081526004016104db9190612be1565b60005b83811015612bd0578181015183820152602001612bb8565b83811115611eae5750506000910152565b6020815260008251806020840152612c00816040850160208701612bb5565b601f017fffffffffffffffffffffffffffffffffffffffffffffffffffffffffffffffe0169190910160400192915050565b73ffffffffffffffffffffffffffffffffffffffff81168114612c5457600080fd5b50565b600080600060608486031215612c6c57600080fd5b8335612c7781612c32565b95602085013595506040909401359392505050565b7f4e487b7100000000000000000000000000000000000000000000000000000000600052604160045260246000fd5b604051601f82017fffffffffffffffffffffffffffffffffffffffffffffffffffffffffffffffe016810167ffffffffffffffff81118282101715612d0257612d02612c8c565b604052919050565b60008060008060808587031215612d2057600080fd5b8435612d2b81612c32565b9350602085810135612d3c81612c32565b935060408601359250606086013567ffffffffffffffff80821115612d6057600080fd5b818801915088601f830112612d7457600080fd5b813581811115612d8657612d86612c8c565b612db6847fffffffffffffffffffffffffffffffffffffffffffffffffffffffffffffffe0601f84011601612cbb565b91508082528984828501011115612dcc57600080fd5b808484018584013760008482840101525080935050505092959194509250565b60008060008060808587031215612e0257600080fd5b8435612e0d81612c32565b935060208501359250604085013591506060850135612e2b81612c32565b939692955090935050565b600080600080600080600080610100898b031215612e5357600080fd5b8835612e5e81612c32565b975060208901359650604089013595506060890135612e7c81612c32565b94506080890135935060a0890135612e9381612c32565b925060c0890135915060e0890135612eaa81612c32565b809150509295985092959890939650565b600060208284031215612ecd57600080fd5b813561228681612c32565b600080600080600080600060e0888a031215612ef357600080fd5b8735612efe81612c32565b965060208801359550604088013594506060880135612f1c81612c32565b93506080880135925060a0880135612f3381612c32565b8092505060c0880135905092959891949750929550565b61ffff81168114612c5457600080fd5b600080600080600080600060e0888a031215612f7557600080fd5b8735612f8081612c32565b9650602088013595506040880135612f9781612c32565b9450606088013593506080880135612fae81612c32565b925060a0880135915060c0880135612fc581612f4a565b8091505092959891949750929550565b600181811c90821680612fe957607f821691505b60208210811415613023577f4e487b7100000000000000000000000000000000000000000000000000000000600052602260045260246000fd5b50919050565b60c08101612264828473ffffffffffffffffffffffffffffffffffffffff80825116835280602083015116602084015261ffff6040830151166040840152606082015160608401528060808301511660808401525060a081015160a08301525050565b600067ffffffffffffffff8211156130a6576130a6612c8c565b5060051b60200190565b600082601f8301126130c157600080fd5b815160206130d66130d18361308c565b612cbb565b82815260059290921b840181019181810190868411156130f557600080fd5b8286015b8481101561311057805183529183019183016130f9565b509695505050505050565b6000806040838503121561312e57600080fd5b825167ffffffffffffffff8082111561314657600080fd5b818501915085601f83011261315a57600080fd5b8151602061316a6130d18361308c565b82815260059290921b8401810191818101908984111561318957600080fd5b948201945b838610156131b05785516131a181612c32565b8252948201949082019061318e565b918801519196509093505050808211156131c957600080fd5b506131d6858286016130b0565b9150509250929050565b7f4e487b7100000000000000000000000000000000000000000000000000000000600052603260045260246000fd5b60006020828403121561322157600080fd5b815161228681612c32565b7f4e487b7100000000000000000000000000000000000000000000000000000000600052601160045260246000fd5b6000817fffffffffffffffffffffffffffffffffffffffffffffffffffffffffffffffff04831182151516156132935761329361322c565b500290565b6000826132ce577f4e487b7100000000000000000000000000000000000000000000000000000000600052601260045260246000fd5b500490565b6000828210156132e5576132e561322c565b500390565b6101008101613334828573ffffffffffffffffffffffffffffffffffffffff8082511683528060208301511660208401525060408101516040830152606081015160608301525050565b825173ffffffffffffffffffffffffffffffffffffffff908116608084015260208401511660a0830152604083015160c0830152606083015160e0830152612286565b73ffffffffffffffffffffffffffffffffffffffff848116825283166020820152610100810161073a604083018473ffffffffffffffffffffffffffffffffffffffff80825116835280602083015116602084015261ffff6040830151166040840152606082015160608401528060808301511660808401525060a081015160a08301525050565b815473ffffffffffffffffffffffffffffffffffffffff90811682526001830154808216602084015261ffff60a091821c166040840152600284015460608401526003840154909116608083015260048301549082015260c08101612264565b60007fffffffffffffffffffffffffffffffffffffffffffffffffffffffffffffffff8214156134915761349161322c565b5060010190565b6000602082840312156134aa57600080fd5b5051919050565b600080604083850312156134c457600080fd5b82516134cf81612f4a565b60208401519092506134e081612c32565b809150509250929050565b600082198211156134fe576134fe61322c565b500190565b60008251613515818460208701612bb5565b9190910192915050565b60006020828403121561353157600080fd5b8151801515811461228657600080fdfea2646970667358221220713a7649df8692375af232feb3f4e57505a484c40fd3b79462d67172bcc2546464736f6c634300080a0033",
    "linkReferences": {}
  },
  "methodIdentifiers": {
    "_handleRoyaltyEnginePayout(address,uint256,uint256,address)": "9128c22c",
    "cancelOffer(address,uint256,uint256)": "0e030d6a",
    "createOffer(address,uint256,address,uint256,address,uint256,uint16)": "ed7141c4",
    "erc20TransferHelper()": "8f9d3251",
    "erc721TransferHelper()": "f7cd1d9b",
    "fillOffer(address,uint256,uint256,address,uint256,address,uint256,address)": "943dca68",
    "name()": "06fdde03",
    "offerCount()": "1115c24d",
    "offers(address,uint256,uint256)": "e3b43677",
    "offersForNFT(address,uint256,uint256)": "ebe46344",
    "onERC721Received(address,address,uint256,bytes)": "150b7a02",
    "registrar()": "2b20e397",
    "setRoyaltyEngineAddress(address)": "b249bb30",
    "updateOffer(address,uint256,uint256,address,uint256,address,uint256)": "e50ae7c7"
  },
  "id": 10
}